{
  "_format": "hh-sol-artifact-1",
  "contractName": "Schoolcrowdfund",
  "sourceName": "src/contracts/Tunmise.sol",
  "abi": [
    {
      "inputs": [
        {
          "internalType": "uint256",
          "name": "_projectTax",
          "type": "uint256"
        }
      ],
      "stateMutability": "nonpayable",
      "type": "constructor"
    },
    {
      "anonymous": false,
      "inputs": [
        {
          "indexed": false,
          "internalType": "uint256",
          "name": "id",
          "type": "uint256"
        },
        {
          "indexed": false,
          "internalType": "string",
          "name": "actionType",
          "type": "string"
        },
        {
          "indexed": true,
          "internalType": "address",
          "name": "executor",
          "type": "address"
        },
        {
          "indexed": false,
          "internalType": "uint256",
          "name": "timestamp",
          "type": "uint256"
        }
      ],
      "name": "Action",
      "type": "event"
    },
    {
      "inputs": [
        {
          "internalType": "uint256",
          "name": "id",
          "type": "uint256"
        }
      ],
      "name": "backProject",
      "outputs": [
        {
          "internalType": "bool",
          "name": "",
          "type": "bool"
        }
      ],
      "stateMutability": "payable",
      "type": "function"
    },
    {
      "inputs": [],
      "name": "balance",
      "outputs": [
        {
          "internalType": "uint256",
          "name": "",
          "type": "uint256"
        }
      ],
      "stateMutability": "view",
      "type": "function"
    },
    {
      "inputs": [
        {
          "internalType": "uint256",
          "name": "_taxPct",
          "type": "uint256"
        }
      ],
      "name": "changeTax",
      "outputs": [],
      "stateMutability": "nonpayable",
      "type": "function"
    },
    {
      "inputs": [
        {
          "internalType": "string",
          "name": "title",
          "type": "string"
        },
        {
          "internalType": "string",
          "name": "description",
          "type": "string"
        },
        {
          "internalType": "string",
          "name": "imageURL",
          "type": "string"
        },
        {
          "internalType": "uint256",
          "name": "cost",
          "type": "uint256"
        },
        {
          "internalType": "uint256",
          "name": "expiresAt",
          "type": "uint256"
        }
      ],
      "name": "createProject",
      "outputs": [
        {
          "internalType": "bool",
          "name": "",
          "type": "bool"
        }
      ],
      "stateMutability": "nonpayable",
      "type": "function"
    },
    {
      "inputs": [
        {
          "internalType": "uint256",
          "name": "id",
          "type": "uint256"
        }
      ],
      "name": "deleteProject",
      "outputs": [
        {
          "internalType": "bool",
          "name": "",
          "type": "bool"
        }
      ],
      "stateMutability": "nonpayable",
      "type": "function"
    },
    {
      "inputs": [
        {
          "internalType": "uint256",
          "name": "id",
          "type": "uint256"
        }
      ],
      "name": "getBackers",
      "outputs": [
        {
          "components": [
            {
              "internalType": "address",
              "name": "owner",
              "type": "address"
            },
            {
              "internalType": "uint256",
              "name": "contribution",
              "type": "uint256"
            },
            {
              "internalType": "uint256",
              "name": "timestamp",
              "type": "uint256"
            },
            {
              "internalType": "bool",
              "name": "refunded",
              "type": "bool"
            }
          ],
          "internalType": "struct Schoolcrowdfund.backerStruct[]",
          "name": "",
          "type": "tuple[]"
        }
      ],
      "stateMutability": "view",
      "type": "function"
    },
    {
      "inputs": [
        {
          "internalType": "uint256",
          "name": "id",
          "type": "uint256"
        }
      ],
      "name": "getProject",
      "outputs": [
        {
          "components": [
            {
              "internalType": "uint256",
              "name": "id",
              "type": "uint256"
            },
            {
              "internalType": "address",
              "name": "owner",
              "type": "address"
            },
            {
              "internalType": "string",
              "name": "title",
              "type": "string"
            },
            {
              "internalType": "string",
              "name": "description",
              "type": "string"
            },
            {
              "internalType": "string",
              "name": "imageURL",
              "type": "string"
            },
            {
              "internalType": "uint256",
              "name": "cost",
              "type": "uint256"
            },
            {
              "internalType": "uint256",
              "name": "raised",
              "type": "uint256"
            },
            {
              "internalType": "uint256",
              "name": "timestamp",
              "type": "uint256"
            },
            {
              "internalType": "uint256",
              "name": "expiresAt",
              "type": "uint256"
            },
            {
              "internalType": "uint256",
              "name": "backers",
              "type": "uint256"
            },
            {
              "internalType": "enum Schoolcrowdfund.statusEnum",
              "name": "status",
              "type": "uint8"
            }
          ],
          "internalType": "struct Schoolcrowdfund.projectStruct",
          "name": "",
          "type": "tuple"
        }
      ],
      "stateMutability": "view",
      "type": "function"
    },
    {
      "inputs": [],
      "name": "getProjects",
      "outputs": [
        {
          "components": [
            {
              "internalType": "uint256",
              "name": "id",
              "type": "uint256"
            },
            {
              "internalType": "address",
              "name": "owner",
              "type": "address"
            },
            {
              "internalType": "string",
              "name": "title",
              "type": "string"
            },
            {
              "internalType": "string",
              "name": "description",
              "type": "string"
            },
            {
              "internalType": "string",
              "name": "imageURL",
              "type": "string"
            },
            {
              "internalType": "uint256",
              "name": "cost",
              "type": "uint256"
            },
            {
              "internalType": "uint256",
              "name": "raised",
              "type": "uint256"
            },
            {
              "internalType": "uint256",
              "name": "timestamp",
              "type": "uint256"
            },
            {
              "internalType": "uint256",
              "name": "expiresAt",
              "type": "uint256"
            },
            {
              "internalType": "uint256",
              "name": "backers",
              "type": "uint256"
            },
            {
              "internalType": "enum Schoolcrowdfund.statusEnum",
              "name": "status",
              "type": "uint8"
            }
          ],
          "internalType": "struct Schoolcrowdfund.projectStruct[]",
          "name": "",
          "type": "tuple[]"
        }
      ],
      "stateMutability": "view",
      "type": "function"
    },
    {
      "inputs": [],
      "name": "owner",
      "outputs": [
        {
          "internalType": "address",
          "name": "",
          "type": "address"
        }
      ],
      "stateMutability": "view",
      "type": "function"
    },
    {
      "inputs": [
        {
          "internalType": "uint256",
          "name": "id",
          "type": "uint256"
        }
      ],
      "name": "payOutProject",
      "outputs": [
        {
          "internalType": "bool",
          "name": "",
          "type": "bool"
        }
      ],
      "stateMutability": "nonpayable",
      "type": "function"
    },
    {
      "inputs": [],
      "name": "projectCount",
      "outputs": [
        {
          "internalType": "uint256",
          "name": "",
          "type": "uint256"
        }
      ],
      "stateMutability": "view",
      "type": "function"
    },
    {
      "inputs": [
        {
          "internalType": "uint256",
          "name": "",
          "type": "uint256"
        }
      ],
      "name": "projectExist",
      "outputs": [
        {
          "internalType": "bool",
          "name": "",
          "type": "bool"
        }
      ],
      "stateMutability": "view",
      "type": "function"
    },
    {
      "inputs": [],
      "name": "projectTax",
      "outputs": [
        {
          "internalType": "uint256",
          "name": "",
          "type": "uint256"
        }
      ],
      "stateMutability": "view",
      "type": "function"
    },
    {
      "inputs": [
        {
          "internalType": "uint256",
          "name": "id",
          "type": "uint256"
        }
      ],
      "name": "requestRefund",
      "outputs": [
        {
          "internalType": "bool",
          "name": "",
          "type": "bool"
        }
      ],
      "stateMutability": "nonpayable",
      "type": "function"
    },
    {
      "inputs": [],
      "name": "stats",
      "outputs": [
        {
          "internalType": "uint256",
          "name": "totalProjects",
          "type": "uint256"
        },
        {
          "internalType": "uint256",
          "name": "totalBacking",
          "type": "uint256"
        },
        {
          "internalType": "uint256",
          "name": "totalDonations",
          "type": "uint256"
        }
      ],
      "stateMutability": "view",
      "type": "function"
    },
    {
      "inputs": [
        {
          "internalType": "uint256",
          "name": "id",
          "type": "uint256"
        },
        {
          "internalType": "string",
          "name": "title",
          "type": "string"
        },
        {
          "internalType": "string",
          "name": "description",
          "type": "string"
        },
        {
          "internalType": "string",
          "name": "imageURL",
          "type": "string"
        },
        {
          "internalType": "uint256",
          "name": "expiresAt",
          "type": "uint256"
        }
      ],
      "name": "updateProject",
      "outputs": [
        {
          "internalType": "bool",
          "name": "",
          "type": "bool"
        }
      ],
      "stateMutability": "nonpayable",
      "type": "function"
    }
  ],
  "bytecode": "0x608060405234801561001057600080fd5b5060405161227238038061227283398101604081905261002f91610049565b600080546001600160a01b03191633179055600155610062565b60006020828403121561005b57600080fd5b5051919050565b612201806100716000396000f3fe6080604052600436106100f35760003560e01c8063a4b2409e1161008a578063d24cd3ec11610059578063d24cd3ec146102b1578063d80528ae146102c7578063dcc6012814610301578063f0f3f2c81461032357600080fd5b8063a4b2409e1461022e578063b531dcba1461024e578063b69ef8a81461026e578063c9168b721461028457600080fd5b80638593054b116100c65780638593054b146101935780638da5cb5b146101c35780639a3fa8c7146101fb5780639f39a1941461021b57600080fd5b8063056c29ee146100f857806336fbad261461012d5780633e45c8af146101515780634cd0cb2814610173575b600080fd5b34801561010457600080fd5b50610118610113366004611cf4565b610350565b60405190151581526020015b60405180910390f35b34801561013957600080fd5b5061014360025481565b604051908152602001610124565b34801561015d57600080fd5b5061017161016c366004611d8e565b6107b9565b005b34801561017f57600080fd5b5061011861018e366004611d8e565b61080e565b34801561019f57600080fd5b506101186101ae366004611d8e565b600a6020526000908152604090205460ff1681565b3480156101cf57600080fd5b506000546101e3906001600160a01b031681565b6040516001600160a01b039091168152602001610124565b34801561020757600080fd5b50610118610216366004611da7565b61098a565b610118610229366004611d8e565b610c01565b34801561023a57600080fd5b50610118610249366004611d8e565b61100e565b34801561025a57600080fd5b50610118610269366004611d8e565b611105565b34801561027a57600080fd5b5061014360035481565b34801561029057600080fd5b506102a461029f366004611d8e565b6111f4565b6040516101249190611f75565b3480156102bd57600080fd5b5061014360015481565b3480156102d357600080fd5b506004546005546006546102e692919083565b60408051938452602084019290925290820152606001610124565b34801561030d57600080fd5b50610316611296565b6040516101249190611fe4565b34801561032f57600080fd5b5061034361033e366004611d8e565b611531565b6040516101249190612073565b60008086511161039f5760405162461bcd60e51b81526020600482015260156024820152745469746c652063616e6e6f7420626520656d70747960581b60448201526064015b60405180910390fd5b60008551116103f05760405162461bcd60e51b815260206004820152601b60248201527f4465736372697074696f6e2063616e6e6f7420626520656d70747900000000006044820152606401610396565b600084511161043c5760405162461bcd60e51b8152602060048201526018602482015277496d61676555524c2063616e6e6f7420626520656d70747960401b6044820152606401610396565b600083116104825760405162461bcd60e51b8152602060048201526013602482015272436f73742063616e6e6f74206265207a65726f60681b6044820152606401610396565b61048a611b5b565b600254815233602080830191825260408301898152606084018990526080840188905260a084018790524260e085015261010084018690526007805460018101825560009190915284517fa66cc928b5edb82af9bd49922954155ab7b0942694bea4ce44661d9a8736c688600b90920291820190815593517fa66cc928b5edb82af9bd49922954155ab7b0942694bea4ce44661d9a8736c689820180546001600160a01b0319166001600160a01b0390921691909117905590518051859493610577937fa66cc928b5edb82af9bd49922954155ab7b0942694bea4ce44661d9a8736c68a01920190611bce565b5060608201518051610593916003840191602090910190611bce565b50608082015180516105af916004840191602090910190611bce565b5060a0820151600582015560c0820151600682015560e0820151600782015561010082015160088201556101208201516009820155610140820151600a8201805460ff1916600183600481111561060857610608612169565b021790555050600280546000908152600a602090815260408083208054600160ff1990911681179091553384526008835281842080548083018255908552938390208751600b909502019384558683015190840180546001600160a01b0319166001600160a01b039092169190911790558501518051869550929361069593908501929190910190611bce565b50606082015180516106b1916003840191602090910190611bce565b50608082015180516106cd916004840191602090910190611bce565b5060a0820151600582015560c0820151600682015560e0820151600782015561010082015160088201556101208201516009820155610140820151600a8201805460ff1916600183600481111561072657610726612169565b02179055505050600160046000016000828254610743919061208d565b90915550506002805433916000805160206121ac8339815191529190600061076a83612138565b9091555060408051918252606060208301819052600f908301526e141493d29150d50810d49150551151608a1b6080830152429082015260a00160405180910390a25060019695505050505050565b6000546001600160a01b031633146108095760405162461bcd60e51b81526020600482015260136024820152724f776e6572207265736572766564206f6e6c7960681b6044820152606401610396565b600155565b600080600783815481106108245761082461217f565b60009182526020909120600a600b90920201015460ff16600481111561084c5761084c612169565b146108945760405162461bcd60e51b8152602060048201526018602482015277141c9bda9958dd081b9bc81b1bdb99d95c881bdc195b995960421b6044820152606401610396565b600782815481106108a7576108a761217f565b60009182526020909120600b90910201600101546001600160a01b031633146108e25760405162461bcd60e51b815260040161039690612046565b6003600783815481106108f7576108f761217f565b60009182526020909120600a600b9092020101805460ff1916600183600481111561092457610924612169565b021790555061093282611811565b60408051838152606060208201819052600f908201526e141493d29150d50811115311551151608a1b60808201524281830152905133916000805160206121ac833981519152919081900360a00190a2506001919050565b60006007868154811061099f5761099f61217f565b60009182526020909120600b90910201600101546001600160a01b031633146109da5760405162461bcd60e51b815260040161039690612046565b6000855111610a235760405162461bcd60e51b81526020600482015260156024820152745469746c652063616e6e6f7420626520656d70747960581b6044820152606401610396565b6000845111610a745760405162461bcd60e51b815260206004820152601b60248201527f4465736372697074696f6e2063616e6e6f7420626520656d70747900000000006044820152606401610396565b6000835111610ac05760405162461bcd60e51b8152602060048201526018602482015277496d61676555524c2063616e6e6f7420626520656d70747960401b6044820152606401610396565b8460078781548110610ad457610ad461217f565b90600052602060002090600b02016002019080519060200190610af8929190611bce565b508360078781548110610b0d57610b0d61217f565b90600052602060002090600b02016003019080519060200190610b31929190611bce565b508260078781548110610b4657610b4661217f565b90600052602060002090600b02016004019080519060200190610b6a929190611bce565b508160078781548110610b7f57610b7f61217f565b90600052602060002090600b020160080181905550336001600160a01b03166000805160206121ac8339815191528742604051610bed929190918252606060208301819052600f908301526e141493d29150d50815541110551151608a1b6080830152604082015260a00190565b60405180910390a250600195945050505050565b6000803411610c525760405162461bcd60e51b815260206004820152601f60248201527f4574686572206d7573742062652067726561746572207468616e207a65726f006044820152606401610396565b6000828152600a602052604090205460ff16610ca45760405162461bcd60e51b8152602060048201526011602482015270141c9bda9958dd081b9bdd08199bdd5b99607a1b6044820152606401610396565b600060078381548110610cb957610cb961217f565b60009182526020909120600a600b90920201015460ff166004811115610ce157610ce1612169565b14610d295760405162461bcd60e51b8152602060048201526018602482015277141c9bda9958dd081b9bc81b1bdb99d95c881bdc195b995960421b6044820152606401610396565b600160046001016000828254610d3f919061208d565b909155505060068054349190600090610d5990849061208d565b925050819055503460078381548110610d7457610d7461217f565b90600052602060002090600b02016006016000828254610d94919061208d565b92505081905550600160078381548110610db057610db061217f565b90600052602060002090600b02016009016000828254610dd0919061208d565b9091555050600082815260096020908152604080832081516080808201845233808352348387019081524284870181815260608087018b8152885460018082018b55998d529b8b902097516004909c0290970180546001600160a01b0319166001600160a01b03909c169b909b178b559251968a01969096559451600289015592516003909701805460ff1916971515979097179096558351888152948501829052600e918501919091526d141493d29150d508109050d2d15160921b90840152908201526000805160206121ac8339815191529060a00160405180910390a260078281548110610ec357610ec361217f565b90600052602060002090600b02016005015460078381548110610ee857610ee861217f565b90600052602060002090600b02016006015410610f9357600160078381548110610f1457610f1461217f565b60009182526020909120600a600b9092020101805460ff19166001836004811115610f4157610f41612169565b021790555060078281548110610f5957610f5961217f565b90600052602060002090600b02016006015460036000828254610f7c919061208d565b90915550610f8b90508261197f565b506001919050565b60078281548110610fa657610fa661217f565b90600052602060002090600b0201600801544210610f8b57600260078381548110610fd357610fd361217f565b60009182526020909120600a600b9092020101805460ff1916600183600481111561100057611000612169565b0217905550610f8b82611811565b60006002600783815481106110255761102561217f565b60009182526020909120600a600b90920201015460ff16600481111561104d5761104d612169565b141580611095575060036007838154811061106a5761106a61217f565b60009182526020909120600a600b90920201015460ff16600481111561109257611092612169565b14155b6110f05760405162461bcd60e51b815260206004820152602660248201527f50726f6a656374206e6f74206d61726b656420617320726576657274206f722060448201526564656c65746560d01b6064820152608401610396565b600260078381548110610fd357610fd361217f565b600060016007838154811061111c5761111c61217f565b60009182526020909120600a600b90920201015460ff16600481111561114457611144612169565b146111885760405162461bcd60e51b8152602060048201526014602482015273141c9bda9958dd081b9bdd081054141493d5915160621b6044820152606401610396565b6007828154811061119b5761119b61217f565b60009182526020909120600b90910201600101546001600160a01b03163314806111cf57506000546001600160a01b031633145b6111eb5760405162461bcd60e51b815260040161039690612046565b610f8b8261197f565b606060096000838152602001908152602001600020805480602002602001604051908101604052809291908181526020016000905b8282101561128b576000848152602090819020604080516080810182526004860290920180546001600160a01b03168352600180820154848601526002820154928401929092526003015460ff16151560608301529083529092019101611229565b505050509050919050565b60606007805480602002602001604051908101604052809291908181526020016000905b828210156115285760008481526020908190206040805161016081018252600b86029092018054835260018101546001600160a01b0316938301939093526002830180549293929184019161130e906120fd565b80601f016020809104026020016040519081016040528092919081815260200182805461133a906120fd565b80156113875780601f1061135c57610100808354040283529160200191611387565b820191906000526020600020905b81548152906001019060200180831161136a57829003601f168201915b505050505081526020016003820180546113a0906120fd565b80601f01602080910402602001604051908101604052809291908181526020018280546113cc906120fd565b80156114195780601f106113ee57610100808354040283529160200191611419565b820191906000526020600020905b8154815290600101906020018083116113fc57829003601f168201915b50505050508152602001600482018054611432906120fd565b80601f016020809104026020016040519081016040528092919081815260200182805461145e906120fd565b80156114ab5780601f10611480576101008083540402835291602001916114ab565b820191906000526020600020905b81548152906001019060200180831161148e57829003601f168201915b505050918352505060058201546020820152600682015460408201526007820154606082015260088201546080820152600982015460a0820152600a82015460c09091019060ff16600481111561150457611504612169565b600481111561151557611515612169565b81525050815260200190600101906112ba565b50505050905090565b611539611b5b565b6000828152600a602052604090205460ff1661158b5760405162461bcd60e51b8152602060048201526011602482015270141c9bda9958dd081b9bdd08199bdd5b99607a1b6044820152606401610396565b6007828154811061159e5761159e61217f565b90600052602060002090600b020160405180610160016040529081600082015481526020016001820160009054906101000a90046001600160a01b03166001600160a01b03166001600160a01b03168152602001600282018054611601906120fd565b80601f016020809104026020016040519081016040528092919081815260200182805461162d906120fd565b801561167a5780601f1061164f5761010080835404028352916020019161167a565b820191906000526020600020905b81548152906001019060200180831161165d57829003601f168201915b50505050508152602001600382018054611693906120fd565b80601f01602080910402602001604051908101604052809291908181526020018280546116bf906120fd565b801561170c5780601f106116e15761010080835404028352916020019161170c565b820191906000526020600020905b8154815290600101906020018083116116ef57829003601f168201915b50505050508152602001600482018054611725906120fd565b80601f0160208091040260200160405190810160405280929190818152602001828054611751906120fd565b801561179e5780601f106117735761010080835404028352916020019161179e565b820191906000526020600020905b81548152906001019060200180831161178157829003601f168201915b505050918352505060058201546020820152600682015460408201526007820154606082015260088201546080820152600982015460a0820152600a82015460c09091019060ff1660048111156117f7576117f7612169565b600481111561180857611808612169565b90525092915050565b60005b60008281526009602052604090205481101561197b57600082815260096020526040812080548390811061184a5761184a61217f565b6000918252602080832060049092029091015485835260099091526040822080546001600160a01b03909216935090849081106118895761188961217f565b906000526020600020906004020160010154905060016009600086815260200190815260200160002084815481106118c3576118c361217f565b906000526020600020906004020160030160006101000a81548160ff021916908315150217905550426009600086815260200190815260200160002084815481106119105761191061217f565b90600052602060002090600402016002018190555061192f8282611af6565b60016004600101600082825461194591906120e6565b90915550506006805482919060009061195f9084906120e6565b925050819055505050808061197390612138565b915050611814565b5050565b6000600782815481106119945761199461217f565b90600052602060002090600b020160060154905060006064600154836119ba91906120c7565b6119c491906120a5565b90506004600784815481106119db576119db61217f565b60009182526020909120600a600b9092020101805460ff19166001836004811115611a0857611a08612169565b0217905550611a4f60078481548110611a2357611a2361217f565b600091825260209091206001600b9092020101546001600160a01b0316611a4a83856120e6565b611af6565b600054611a65906001600160a01b031682611af6565b60078381548110611a7857611a7861217f565b90600052602060002090600b02016006015460036000828254611a9b91906120e6565b9091555050604080518481526060602082018190526010908201526f141493d29150d508141052510813d55560821b60808201524281830152905133916000805160206121ac833981519152919081900360a00190a2505050565b6000826001600160a01b03168260405160006040518083038185875af1925050503d8060008114611b43576040519150601f19603f3d011682016040523d82523d6000602084013e611b48565b606091505b5050905080611b5657600080fd5b505050565b6040518061016001604052806000815260200160006001600160a01b03168152602001606081526020016060815260200160608152602001600081526020016000815260200160008152602001600081526020016000815260200160006004811115611bc957611bc9612169565b905290565b828054611bda906120fd565b90600052602060002090601f016020900481019282611bfc5760008555611c42565b82601f10611c1557805160ff1916838001178555611c42565b82800160010185558215611c42579182015b82811115611c42578251825591602001919060010190611c27565b50611c4e929150611c52565b5090565b5b80821115611c4e5760008155600101611c53565b600082601f830112611c7857600080fd5b813567ffffffffffffffff80821115611c9357611c93612195565b604051601f8301601f19908116603f01168101908282118183101715611cbb57611cbb612195565b81604052838152866020858801011115611cd457600080fd5b836020870160208301376000602085830101528094505050505092915050565b600080600080600060a08688031215611d0c57600080fd5b853567ffffffffffffffff80821115611d2457600080fd5b611d3089838a01611c67565b96506020880135915080821115611d4657600080fd5b611d5289838a01611c67565b95506040880135915080821115611d6857600080fd5b50611d7588828901611c67565b9598949750949560608101359550608001359392505050565b600060208284031215611da057600080fd5b5035919050565b600080600080600060a08688031215611dbf57600080fd5b85359450602086013567ffffffffffffffff80821115611dde57600080fd5b611dea89838a01611c67565b95506040880135915080821115611e0057600080fd5b611e0c89838a01611c67565b94506060880135915080821115611e2257600080fd5b50611e2f88828901611c67565b95989497509295608001359392505050565b60058110611e5f57634e487b7160e01b600052602160045260246000fd5b9052565b6000815180845260005b81811015611e8957602081850181015186830182015201611e6d565b81811115611e9b576000602083870101525b50601f01601f19169290920160200192915050565b6000610160825184526020830151611ed360208601826001600160a01b03169052565b506040830151816040860152611eeb82860182611e63565b91505060608301518482036060860152611f058282611e63565b91505060808301518482036080860152611f1f8282611e63565b91505060a083015160a085015260c083015160c085015260e083015160e085015261010080840151818601525061012080840151818601525061014080840151611f6b82870182611e41565b5090949350505050565b602080825282518282018190526000919060409081850190868401855b82811015611fd757815180516001600160a01b031685528681015187860152858101518686015260609081015115159085015260809093019290850190600101611f92565b5091979650505050505050565b6000602080830181845280855180835260408601915060408160051b870101925083870160005b8281101561203957603f19888603018452612027858351611eb0565b9450928501929085019060010161200b565b5092979650505050505050565b602080825260139082015272556e617574686f72697a656420456e7469747960681b604082015260600190565b6020815260006120866020830184611eb0565b9392505050565b600082198211156120a0576120a0612153565b500190565b6000826120c257634e487b7160e01b600052601260045260246000fd5b500490565b60008160001904831182151516156120e1576120e1612153565b500290565b6000828210156120f8576120f8612153565b500390565b600181811c9082168061211157607f821691505b6020821081141561213257634e487b7160e01b600052602260045260246000fd5b50919050565b600060001982141561214c5761214c612153565b5060010190565b634e487b7160e01b600052601160045260246000fd5b634e487b7160e01b600052602160045260246000fd5b634e487b7160e01b600052603260045260246000fd5b634e487b7160e01b600052604160045260246000fdfeaee8e5d3bbb2f71a951b5632cee20f7ac487b9f8ab4f66a236f7694b13af7c6aa2646970667358221220a78310b580e331b77628fcd85e0bdf8c004e16ba4323060fd3f8a9a5e08277fa64736f6c63430008070033",
  "linkReferences": {},
  "deployedLinkReferences": {}
}